{
  "_format": "hh-sol-artifact-1",
  "contractName": "CrowdFunding",
  "sourceName": "src/solidity/contracts/CrowdFunding.sol",
  "abi": [
    {
      "inputs": [
        {
          "internalType": "uint256",
          "name": "_duration",
          "type": "uint256"
        }
      ],
      "stateMutability": "nonpayable",
      "type": "constructor"
    },
    {
      "anonymous": false,
      "inputs": [
        {
          "indexed": false,
          "internalType": "uint256",
          "name": "_pid",
          "type": "uint256"
        },
        {
          "indexed": false,
          "internalType": "uint256",
          "name": "_time",
          "type": "uint256"
        },
        {
          "indexed": false,
          "internalType": "address",
          "name": "_from",
          "type": "address"
        },
        {
          "indexed": false,
          "internalType": "uint256",
          "name": "_fund",
          "type": "uint256"
        }
      ],
      "name": "FundsTransferred",
      "type": "event"
    },
    {
      "anonymous": false,
      "inputs": [
        {
          "indexed": false,
          "internalType": "uint256",
          "name": "_pid",
          "type": "uint256"
        },
        {
          "indexed": false,
          "internalType": "uint256",
          "name": "_time",
          "type": "uint256"
        },
        {
          "indexed": false,
          "internalType": "address",
          "name": "_to",
          "type": "address"
        },
        {
          "indexed": false,
          "internalType": "uint256",
          "name": "_fund",
          "type": "uint256"
        }
      ],
      "name": "FundsWithdrawn",
      "type": "event"
    },
    {
      "anonymous": false,
      "inputs": [
        {
          "indexed": false,
          "internalType": "uint256",
          "name": "_pid",
          "type": "uint256"
        },
        {
          "indexed": false,
          "internalType": "uint256",
          "name": "_time",
          "type": "uint256"
        }
      ],
      "name": "ProjectIsVerified",
      "type": "event"
    },
    {
      "anonymous": false,
      "inputs": [
        {
          "indexed": false,
          "internalType": "uint256",
          "name": "_id",
          "type": "uint256"
        },
        {
          "indexed": false,
          "internalType": "uint256",
          "name": "_rtime",
          "type": "uint256"
        },
        {
          "indexed": false,
          "internalType": "string",
          "name": "_name",
          "type": "string"
        },
        {
          "indexed": false,
          "internalType": "address",
          "name": "_owner",
          "type": "address"
        }
      ],
      "name": "ProjectRegistered",
      "type": "event"
    },
    {
      "inputs": [],
      "name": "Manager",
      "outputs": [
        {
          "internalType": "address",
          "name": "",
          "type": "address"
        }
      ],
      "stateMutability": "view",
      "type": "function"
    },
    {
      "inputs": [
        {
          "internalType": "uint256",
          "name": "",
          "type": "uint256"
        }
      ],
      "name": "ProjectFunds",
      "outputs": [
        {
          "internalType": "uint256",
          "name": "",
          "type": "uint256"
        }
      ],
      "stateMutability": "view",
      "type": "function"
    },
    {
      "inputs": [
        {
          "internalType": "address",
          "name": "",
          "type": "address"
        }
      ],
      "name": "ProjectId",
      "outputs": [
        {
          "internalType": "uint256",
          "name": "",
          "type": "uint256"
        }
      ],
      "stateMutability": "view",
      "type": "function"
    },
    {
      "inputs": [
        {
          "internalType": "uint256",
          "name": "",
          "type": "uint256"
        }
      ],
      "name": "Projects",
      "outputs": [
        {
          "internalType": "uint256",
          "name": "id",
          "type": "uint256"
        },
        {
          "internalType": "address payable",
          "name": "owner",
          "type": "address"
        },
        {
          "internalType": "string",
          "name": "projectName",
          "type": "string"
        },
        {
          "internalType": "string",
          "name": "description",
          "type": "string"
        },
        {
          "internalType": "uint256",
          "name": "expectedCost",
          "type": "uint256"
        },
        {
          "internalType": "uint256",
          "name": "isRegistered",
          "type": "uint256"
        },
        {
          "internalType": "uint256",
          "name": "isVerified",
          "type": "uint256"
        },
        {
          "internalType": "uint256",
          "name": "fundedAmt",
          "type": "uint256"
        },
        {
          "internalType": "uint256",
          "name": "fundWithdraw",
          "type": "uint256"
        }
      ],
      "stateMutability": "view",
      "type": "function"
    },
    {
      "inputs": [],
      "name": "TimeLeft",
      "outputs": [
        {
          "internalType": "uint256",
          "name": "",
          "type": "uint256"
        }
      ],
      "stateMutability": "view",
      "type": "function"
    },
    {
      "inputs": [],
      "name": "contractBal",
      "outputs": [
        {
          "internalType": "uint256",
          "name": "",
          "type": "uint256"
        }
      ],
      "stateMutability": "view",
      "type": "function"
    },
    {
      "inputs": [],
      "name": "counter",
      "outputs": [
        {
          "internalType": "uint256",
          "name": "",
          "type": "uint256"
        }
      ],
      "stateMutability": "view",
      "type": "function"
    },
    {
      "inputs": [
        {
          "internalType": "string",
          "name": "_pName",
          "type": "string"
        },
        {
          "internalType": "string",
          "name": "_desc",
          "type": "string"
        },
        {
          "internalType": "uint256",
          "name": "_cost",
          "type": "uint256"
        }
      ],
      "name": "regProject",
      "outputs": [],
      "stateMutability": "nonpayable",
      "type": "function"
    },
    {
      "inputs": [
        {
          "internalType": "uint256",
          "name": "_id",
          "type": "uint256"
        }
      ],
      "name": "sendFunds",
      "outputs": [],
      "stateMutability": "payable",
      "type": "function"
    },
    {
      "inputs": [
        {
          "internalType": "uint256",
          "name": "_id",
          "type": "uint256"
        }
      ],
      "name": "verifyProject",
      "outputs": [],
      "stateMutability": "nonpayable",
      "type": "function"
    },
    {
      "inputs": [
        {
          "internalType": "uint256",
          "name": "_id",
          "type": "uint256"
        }
      ],
      "name": "viewProject",
      "outputs": [
        {
          "internalType": "uint256",
          "name": "",
          "type": "uint256"
        },
        {
          "internalType": "address",
          "name": "",
          "type": "address"
        },
        {
          "internalType": "string",
          "name": "",
          "type": "string"
        },
        {
          "internalType": "string",
          "name": "",
          "type": "string"
        },
        {
          "internalType": "uint256",
          "name": "",
          "type": "uint256"
        },
        {
          "internalType": "uint256",
          "name": "",
          "type": "uint256"
        },
        {
          "internalType": "uint256",
          "name": "",
          "type": "uint256"
        }
      ],
      "stateMutability": "view",
      "type": "function"
    },
    {
      "inputs": [
        {
          "internalType": "uint256",
          "name": "_id",
          "type": "uint256"
        }
      ],
      "name": "withdrawFunds",
      "outputs": [],
      "stateMutability": "payable",
      "type": "function"
    }
  ],
  "bytecode": "0x60806040523480156200001157600080fd5b5060405162001dd038038062001dd08339818101604052810190620000379190620000c2565b336000806101000a81548173ffffffffffffffffffffffffffffffffffffffff021916908373ffffffffffffffffffffffffffffffffffffffff1602179055504260028190555060025462015180826200009291906200014b565b6200009e9190620000ee565b60038190555050620001ff565b600081519050620000bc81620001e5565b92915050565b600060208284031215620000d557600080fd5b6000620000e584828501620000ab565b91505092915050565b6000620000fb82620001ac565b91506200010883620001ac565b9250827fffffffffffffffffffffffffffffffffffffffffffffffffffffffffffffffff0382111562000140576200013f620001b6565b5b828201905092915050565b60006200015882620001ac565b91506200016583620001ac565b9250817fffffffffffffffffffffffffffffffffffffffffffffffffffffffffffffffff0483118215151615620001a157620001a0620001b6565b5b828202905092915050565b6000819050919050565b7f4e487b7100000000000000000000000000000000000000000000000000000000600052601160045260246000fd5b620001f081620001ac565b8114620001fc57600080fd5b50565b611bc1806200020f6000396000f3fe6080604052600436106100a75760003560e01c80639130bdf7116100645780639130bdf7146101a8578063c9cd30a0146101e5578063de824f9314610210578063e43754921461023b578063ed1ca91a1461027e578063f70c6c24146102a7576100a7565b8063155dd5ee146100ac57806321b2416c146100c85780634b3f6c081461010d57806361bc221a1461013657806378357e53146101615780638b2810181461018c575b600080fd5b6100c660048036038101906100c19190611148565b6102e4565b005b3480156100d457600080fd5b506100ef60048036038101906100ea9190611148565b610535565b60405161010499989796959493929190611434565b60405180910390f35b34801561011957600080fd5b50610134600480360381019061012f91906110c9565b6106b3565b005b34801561014257600080fd5b5061014b6109ab565b6040516101589190611419565b60405180910390f35b34801561016d57600080fd5b506101766109b1565b60405161018391906112fe565b60405180910390f35b6101a660048036038101906101a19190611148565b6109d5565b005b3480156101b457600080fd5b506101cf60048036038101906101ca9190611148565b610b9f565b6040516101dc9190611419565b60405180910390f35b3480156101f157600080fd5b506101fa610bb7565b6040516102079190611419565b60405180910390f35b34801561021c57600080fd5b50610225610bbf565b6040516102329190611419565b60405180910390f35b34801561024757600080fd5b50610262600480360381019061025d9190611148565b610c19565b60405161027597969594939291906114cf565b60405180910390f35b34801561028a57600080fd5b506102a560048036038101906102a09190611148565b610e6d565b005b3480156102b357600080fd5b506102ce60048036038101906102c991906110a0565b610f53565b6040516102db9190611419565b60405180910390f35b6003544211610328576040517f08c379a000000000000000000000000000000000000000000000000000000000815260040161031f906113d9565b60405180910390fd5b6006600082815260200190815260200160002060010160009054906101000a900473ffffffffffffffffffffffffffffffffffffffff1673ffffffffffffffffffffffffffffffffffffffff163373ffffffffffffffffffffffffffffffffffffffff16146103cc576040517f08c379a00000000000000000000000000000000000000000000000000000000081526004016103c390611379565b60405180910390fd5b60006006600083815260200190815260200160002060010160009054906101000a900473ffffffffffffffffffffffffffffffffffffffff16905060076000838152602001908152602001600020546006600084815260200190815260200160002060070160008282546104409190611713565b925050819055508073ffffffffffffffffffffffffffffffffffffffff166108fc60076000858152602001908152602001600020549081150290604051600060405180830381858888f193505050501580156104a0573d6000803e3d6000fd5b5060076000838152602001908152602001600020546006600084815260200190815260200160002060080160008282546104da91906116bd565b925050819055507f0db4f77c809a73df9561c6fa9a28ac2f521c941d600b05945a303f17aca316b582428360076000878152602001908152602001600020546040516105299493929190611575565b60405180910390a15050565b60066020528060005260406000206000915090508060000154908060010160009054906101000a900473ffffffffffffffffffffffffffffffffffffffff16908060020180546105849061180d565b80601f01602080910402602001604051908101604052809291908181526020018280546105b09061180d565b80156105fd5780601f106105d2576101008083540402835291602001916105fd565b820191906000526020600020905b8154815290600101906020018083116105e057829003601f168201915b5050505050908060030180546106129061180d565b80601f016020809104026020016040519081016040528092919081815260200182805461063e9061180d565b801561068b5780601f106106605761010080835404028352916020019161068b565b820191906000526020600020905b81548152906001019060200180831161066e57829003601f168201915b5050505050908060040154908060050154908060060154908060070154908060080154905089565b60035442106106f7576040517f08c379a00000000000000000000000000000000000000000000000000000000081526004016106ee90611339565b60405180910390fd5b60008054906101000a900473ffffffffffffffffffffffffffffffffffffffff1673ffffffffffffffffffffffffffffffffffffffff163373ffffffffffffffffffffffffffffffffffffffff161415801561079257506000600560003373ffffffffffffffffffffffffffffffffffffffff1673ffffffffffffffffffffffffffffffffffffffff16815260200190815260200160002054145b6107d1576040517f08c379a00000000000000000000000000000000000000000000000000000000081526004016107c890611399565b60405180910390fd5b600460008154809291906107e490611870565b9190505550600060405180610120016040528060045481526020013373ffffffffffffffffffffffffffffffffffffffff16815260200185815260200184815260200183815260200160018152602001600081526020016000815260200160008152509050600454600560003373ffffffffffffffffffffffffffffffffffffffff1673ffffffffffffffffffffffffffffffffffffffff16815260200190815260200160002081905550806006600060045481526020019081526020016000206000820151816000015560208201518160010160006101000a81548173ffffffffffffffffffffffffffffffffffffffff021916908373ffffffffffffffffffffffffffffffffffffffff1602179055506040820151816002019080519060200190610912929190610f6b565b50606082015181600301908051906020019061092f929190610f6b565b506080820151816004015560a0820151816005015560c0820151816006015560e0820151816007015561010082015181600801559050507fc28c151a79b198b05e4233e7e7dd2a911e757df26ce23572de3a9eb2bae1691860045442863360405161099d94939291906115ff565b60405180910390a150505050565b60045481565b60008054906101000a900473ffffffffffffffffffffffffffffffffffffffff1681565b6003544210610a19576040517f08c379a0000000000000000000000000000000000000000000000000000000008152600401610a10906113f9565b60405180910390fd5b60016006600083815260200190815260200160002060060154148015610aa157506006600082815260200190815260200160002060010160009054906101000a900473ffffffffffffffffffffffffffffffffffffffff1673ffffffffffffffffffffffffffffffffffffffff163373ffffffffffffffffffffffffffffffffffffffff1614155b8015610ac3575060006006600083815260200190815260200160002060080154145b610b02576040517f08c379a0000000000000000000000000000000000000000000000000000000008152600401610af990611359565b60405180910390fd5b34600660008381526020019081526020016000206007016000828254610b2891906116bd565b9250508190555060016000815480929190610b4290611870565b91905055503460076000838152602001908152602001600020819055507fc36c3287f8458da7ee2acefcb1186f657a550e2ad62c6fdeb7c4474b74186b2a81423334604051610b9494939291906115ba565b60405180910390a150565b60076020528060005260406000206000915090505481565b600047905090565b6000600354421115610c06576040517f08c379a0000000000000000000000000000000000000000000000000000000008152600401610bfd906113f9565b60405180910390fd5b42600354610c149190611713565b905090565b60008060608060008060006001600660008a81526020019081526020016000206006015414610c7d576040517f08c379a0000000000000000000000000000000000000000000000000000000008152600401610c7490611319565b60405180910390fd5b6006600089815260200190815260200160002060000154600660008a815260200190815260200160002060010160009054906101000a900473ffffffffffffffffffffffffffffffffffffffff16600660008b8152602001908152602001600020600201600660008c8152602001908152602001600020600301600660008d815260200190815260200160002060040154600660008e815260200190815260200160002060050154600660008f815260200190815260200160002060070154848054610d489061180d565b80601f0160208091040260200160405190810160405280929190818152602001828054610d749061180d565b8015610dc15780601f10610d9657610100808354040283529160200191610dc1565b820191906000526020600020905b815481529060010190602001808311610da457829003601f168201915b50505050509450838054610dd49061180d565b80601f0160208091040260200160405190810160405280929190818152602001828054610e009061180d565b8015610e4d5780601f10610e2257610100808354040283529160200191610e4d565b820191906000526020600020905b815481529060010190602001808311610e3057829003601f168201915b505050505093509650965096509650965096509650919395979092949650565b60008054906101000a900473ffffffffffffffffffffffffffffffffffffffff1673ffffffffffffffffffffffffffffffffffffffff163373ffffffffffffffffffffffffffffffffffffffff1614610efb576040517f08c379a0000000000000000000000000000000000000000000000000000000008152600401610ef2906113b9565b60405180910390fd5b600160066000838152602001908152602001600020600601819055507f3b4c5cb36b50c69e903401592f55aec188c7e6f3e2928f52a93c8afe447f27f18142604051610f4892919061154c565b60405180910390a150565b60056020528060005260406000206000915090505481565b828054610f779061180d565b90600052602060002090601f016020900481019282610f995760008555610fe0565b82601f10610fb257805160ff1916838001178555610fe0565b82800160010185558215610fe0579182015b82811115610fdf578251825591602001919060010190610fc4565b5b509050610fed9190610ff1565b5090565b5b8082111561100a576000816000905550600101610ff2565b5090565b600061102161101c84611670565b61164b565b90508281526020810184848401111561103957600080fd5b6110448482856117cb565b509392505050565b60008135905061105b81611b5d565b92915050565b600082601f83011261107257600080fd5b813561108284826020860161100e565b91505092915050565b60008135905061109a81611b74565b92915050565b6000602082840312156110b257600080fd5b60006110c08482850161104c565b91505092915050565b6000806000606084860312156110de57600080fd5b600084013567ffffffffffffffff8111156110f857600080fd5b61110486828701611061565b935050602084013567ffffffffffffffff81111561112157600080fd5b61112d86828701611061565b925050604061113e8682870161108b565b9150509250925092565b60006020828403121561115a57600080fd5b60006111688482850161108b565b91505092915050565b61117a81611795565b82525050565b61118981611759565b82525050565b61119881611747565b82525050565b60006111a9826116a1565b6111b381856116ac565b93506111c38185602086016117da565b6111cc81611946565b840191505092915050565b60006111e46017836116ac565b91506111ef82611957565b602082019050919050565b60006112076010836116ac565b915061121282611980565b602082019050919050565b600061122a6026836116ac565b9150611235826119a9565b604082019050919050565b600061124d6021836116ac565b9150611258826119f8565b604082019050919050565b60006112706042836116ac565b915061127b82611a47565b606082019050919050565b60006112936013836116ac565b915061129e82611abc565b602082019050919050565b60006112b66024836116ac565b91506112c182611ae5565b604082019050919050565b60006112d9601c836116ac565b91506112e482611b34565b602082019050919050565b6112f88161178b565b82525050565b6000602082019050611313600083018461118f565b92915050565b60006020820190508181036000830152611332816111d7565b9050919050565b60006020820190508181036000830152611352816111fa565b9050919050565b600060208201905081810360008301526113728161121d565b9050919050565b6000602082019050818103600083015261139281611240565b9050919050565b600060208201905081810360008301526113b281611263565b9050919050565b600060208201905081810360008301526113d281611286565b9050919050565b600060208201905081810360008301526113f2816112a9565b9050919050565b60006020820190508181036000830152611412816112cc565b9050919050565b600060208201905061142e60008301846112ef565b92915050565b60006101208201905061144a600083018c6112ef565b611457602083018b611180565b8181036040830152611469818a61119e565b9050818103606083015261147d818961119e565b905061148c60808301886112ef565b61149960a08301876112ef565b6114a660c08301866112ef565b6114b360e08301856112ef565b6114c16101008301846112ef565b9a9950505050505050505050565b600060e0820190506114e4600083018a6112ef565b6114f1602083018961118f565b8181036040830152611503818861119e565b90508181036060830152611517818761119e565b905061152660808301866112ef565b61153360a08301856112ef565b61154060c08301846112ef565b98975050505050505050565b600060408201905061156160008301856112ef565b61156e60208301846112ef565b9392505050565b600060808201905061158a60008301876112ef565b61159760208301866112ef565b6115a46040830185611171565b6115b160608301846112ef565b95945050505050565b60006080820190506115cf60008301876112ef565b6115dc60208301866112ef565b6115e9604083018561118f565b6115f660608301846112ef565b95945050505050565b600060808201905061161460008301876112ef565b61162160208301866112ef565b8181036040830152611633818561119e565b9050611642606083018461118f565b95945050505050565b6000611655611666565b9050611661828261183f565b919050565b6000604051905090565b600067ffffffffffffffff82111561168b5761168a611917565b5b61169482611946565b9050602081019050919050565b600081519050919050565b600082825260208201905092915050565b60006116c88261178b565b91506116d38361178b565b9250827fffffffffffffffffffffffffffffffffffffffffffffffffffffffffffffffff03821115611708576117076118b9565b5b828201905092915050565b600061171e8261178b565b91506117298361178b565b92508282101561173c5761173b6118b9565b5b828203905092915050565b60006117528261176b565b9050919050565b60006117648261176b565b9050919050565b600073ffffffffffffffffffffffffffffffffffffffff82169050919050565b6000819050919050565b60006117a0826117a7565b9050919050565b60006117b2826117b9565b9050919050565b60006117c48261176b565b9050919050565b82818337600083830152505050565b60005b838110156117f85780820151818401526020810190506117dd565b83811115611807576000848401525b50505050565b6000600282049050600182168061182557607f821691505b60208210811415611839576118386118e8565b5b50919050565b61184882611946565b810181811067ffffffffffffffff8211171561186757611866611917565b5b80604052505050565b600061187b8261178b565b91507fffffffffffffffffffffffffffffffffffffffffffffffffffffffffffffffff8214156118ae576118ad6118b9565b5b600182019050919050565b7f4e487b7100000000000000000000000000000000000000000000000000000000600052601160045260246000fd5b7f4e487b7100000000000000000000000000000000000000000000000000000000600052602260045260246000fd5b7f4e487b7100000000000000000000000000000000000000000000000000000000600052604160045260246000fd5b6000601f19601f8301169050919050565b7f50726f6a656374206973206e6f74207665726966696564000000000000000000600082015250565b7f4475726174696f6e206973206f76657200000000000000000000000000000000600082015250565b7f796f7520617265206f776e6572206f722070726f6a65637420697320756e766560008201527f7269666965640000000000000000000000000000000000000000000000000000602082015250565b7f596f7520617265206e6f74206f776e6572206f6620746869732070726f6a656360008201527f7400000000000000000000000000000000000000000000000000000000000000602082015250565b7f4d616e6167657220616e64206578697374696e67206f776e657273206f66207060008201527f726f6a65637473206e6f742061626c6520746f2072656769737465722061676160208201527f696e000000000000000000000000000000000000000000000000000000000000604082015250565b7f596f7520617265206e6f74204d616e6167657200000000000000000000000000600082015250565b7f5468652066756e64696e67206475726174696f6e206973206e6f74206f76657260008201527f2079657400000000000000000000000000000000000000000000000000000000602082015250565b7f5468652066756e64696e67206475726174696f6e206973206f76657200000000600082015250565b611b6681611747565b8114611b7157600080fd5b50565b611b7d8161178b565b8114611b8857600080fd5b5056fea2646970667358221220a47ba4f6786ca4c63eef65b6f3ff9c539f44f5e853668f78904d104d2713a2e464736f6c63430008030033",
  "linkReferences": {},
  "deployedLinkReferences": {}
}